:020000040800F2
:1000000058040020AD0200082F14000879130008DE
:100010002D14000819030008C7190008000000008B
:100020000000000000000000000000003314000881
:100030001B030008000000003114000835140008FC
:10004000C7020008C7020008C7020008C70200086C
:10005000C7020008C7020008C7020008C70200085C
:10006000C7020008C7020008C7020008C70200084C
:10007000C7020008C7020008C7020008C70200083C
:10008000C7020008C7020008C7020008C70200082C
:10009000C7020008C7020008C7020008C70200081C
:1000A000C7020008C7020008C7020008C70200080C
:1000B000C7020008C7020008C7020008C7020008FC
:1000C000C7020008C7020008C7020008C7020008EC
:1000D000C7020008C7020008C7020008C7020008DC
:1000E000C7020008C702000800000000C70200089D
:1000F000C7020008C7020008C7020008C7020008BC
:10010000C7020008C7020008C7020008C7020008AB
:10011000C7020008C7020008C7020008C70200089B
:10012000C7020008C7020008C7020008C70200088B
:10013000C7020008C7020008C7020008C70200087B
:1001400000000000000000000000000000000000AF
:10015000C7020008C7020008C7020008C70200085B
:10016000C7020008C7020008C7020008C70200084B
:10017000C7020008C7020008C7020008000000000C
:10018000C7020008C7020008C7020008C70200082B
:10019000C7020008C7020008C7020008C70200081B
:1001A000C7020008C7020008C7020008C70200080B
:1001B000C7020008C7020008C7020008C7020008FB
:1001C000C7020008C7020008C7020008C7020008EB
:1001D000C7020008C7020008C7020008C7020008DB
:1001E000C7020008C7020008C7020008C7020008CB
:1001F000C7020008C7020008C7020008C7020008BB
:10020000C7020008C7020008C7020008C7020008AA
:10021000C7020008C7020008C7020008C70200089A
:10022000C7020008C7020008C7020008000000005B
:10023000C7020008C702000800000000C70200084B
:10024000C7020008C7020008C7020008C70200086A
:10025000C7020008C7020008C7020008C70200085A
:10026000C7020008C7020008C7020008C70200084A
:10027000C7020008C7020008C7020008000000000B
:10028000C7020008C7020008C702000800000000FB
:1002900000000000C7020008DFF80CD000F02AF8C8
:1002A00000480047091A0008580400200648804703
:1002B00006480047FEE7FEE7FEE7FEE7FEE7FEE74B
:1002C000FEE7FEE7FEE7FEE7D1140008990200080A
:1002D000D2B201E000F8012B491EFBD27047002288
:1002E000F6E710B513460A4604461946FFF7F0FF35
:1002F000204610BD064C074D06E0E06840F00103C3
:1003000094E8070098471034AC42F6D3FFF7C8FFD3
:100310005C1A00087C1A0008FEE770472DE9F84FC8
:10032000714C00234FF0B04E4FF001094FF0030B1A
:100330004FF00F0AD0E000BF09FA03F812EA0802F2
:1003400074D04D68022D01D0122D0FD1DD085F074A
:1003500000EB850500950E692D6AFF0E0AFA07FC71
:10036000BE4025EA0C052E43009D2E625D000F79EC
:1003700006680BFA05FC07F0030726EA0C06AF40F7
:10038000374307604E68012E05D0022E03D0112E90
:1003900001D0122E0FD18668CF6826EA0C06AF4036
:1003A0003743876046680F7926EA0806C7F30017C7
:1003B0009F4037434760C6688F6826EA0C06AF4007
:1003C0003743C7604D68ED0030D5484D2E6846F084
:1003D00002062E602D6823F0030606F1B04605F0F4
:1003E000020500959D072F0FD6F80854DFF800810D
:1003F0000AFA07FC404525EA0C0502D14FF0000C33
:1004000041E0DFF8F0C0604502D14FF0010C3AE066
:10041000DFF8E4C0604502D14FF0020C33E0DFF8B2
:10042000DCC0604503D14FF0030C2CE053E0DFF853
:10043000D0C0604502D14FF0040C24E0DFF8C4C006
:10044000604502D14FF0050C1DE0DFF8BCC06045EF
:1004500002D14FF0060C16E0DFF8B0C0604502D1C3
:100460004FF0070C0FE0DFF8A8C0604502D14FF055
:10047000080C08E0DFF89CC0604502D14FF0090C81
:1004800001E04FF00A0C0CFA07FC4CEA050CC6F828
:1004900008C425684E6825EA0205F60300D5154311
:1004A000256065684E6825EA0205B60300D5154348
:1004B00065604F687546DEF80060FF0226EA0206B6
:1004C00000D516432E604F686E68BF0226EA02060A
:1004D00000D516436E605B1C0A6832FA03F57FF4A0
:1004E0002BAFBDE8F88F000080000058F44402589C
:1004F000000002580004025800080258000C02587C
:10050000001002580014025800180258001C02582B
:10051000002002580024025801480068000C70476F
:100520000010005C01488068704700000000002057
:100530000248816802781144816070470000002001
:10054000032010B500F076F800F0D0F90E490F4AFC
:100550000F4B0C68C4F30324145D04F01F04E04047
:100560001860096801F00F01515C01F01F01C840DB
:1005700008490860002000F00FF808B1012010BD04
:1005800000F02AF8002010BD184402584C1A000848
:100590000C0000201000002070B50D4D0446287896
:1005A000A0B14FF47A71B1FBF0F00A490968B1FBD0
:1005B000F0F000F092FC48B9102C07D2002221463E
:1005C000501E00F017F800206C6070BD012070BD57
:1005D000000000200C000020054808B5016841F02B
:1005E00002010160006800F00200009008BD0000F8
:1005F000F44402580E4BF0B41B680D46C3F30223BB
:10060000C3F10706042E00D90426191D072901D2BB
:10061000002300E0DB1E012404FA06F19C40491E81
:100620002940641E994014402143F0BC01F0CCB92C
:100630000CED00E0064900F0070210B54FF6FF048C
:100640000868044B204040EA02201843086010BDAF
:100650000CED00E00000FA05124970B50A68520777
:1006600006D40A6802F00702824201D0012070BD60
:100670000A6822F0070202430A60FFF753FF094DA0
:100680004FF47A760446083D07E000BFFFF74AFFC3
:10069000001BB04201D9032070BD28688004F5D545
:1006A000002070BD0C4802582DE9F05F04000F4691
:1006B0007ED0DFF82482D8F8000000F00F00B842A6
:1006C0000CD2D8F8001021F00F013943C8F80010FF
:1006D000D8F8000000F00F00B84269D120787F4DB3
:1006E00040070AD52069296801F07001884204D9C1
:1006F000296821F07001014329602078774E361D6A
:1007000000070AD56069316801F07001884204D998
:10071000316821F07001014331602078C0060AD5AC
:10072000A069316801F4E061884204D9316821F49C
:10073000E061014331602078DFF8A0B180060BF161
:10074000080B0CD5E1695846DBF8002002F0700276
:10075000914204D9026822F070020A4302602078B4
:1007600080070AD5E068296801F00F01884204D9A2
:10077000296821F00F01014329602078C0073ED08D
:100780005649A2682868183920F470601043286020
:100790006068022818D0032819D00968012819D0E8
:1007A000490700294ADADFF834A1AAF1080A00E073
:1007B00044E0DAF8002022F007020243CAF80020E1
:1007C000FFF7B0FE814612E009688903E9E709688E
:1007D0008901E6E7C905E4E7FFF7A4FEA0EB0901FC
:1007E00041F28830814202D90320BDE8F09F616860
:1007F000DAF8000000F03800B0EBC10FECD120783F
:1008000080070AD5E068296801F00F01884204D208
:10081000296821F00F0101432960D8F800104046F3
:1008200001F00F01B9420BD9016821F00F013943E2
:100830000160006800F00F00B84201D00120D4E749
:10084000207840070AD52069296801F070018842A4
:1008500004D2296821F07001014329602078000743
:100860000AD56069316801F07001884204D23168AC
:1008700021F07001014331602078C0060AD5A069DB
:10088000316801F4E061884204D2316821F4E0610A
:1008900001433160207880060CD5E1695846DBF8C9
:1008A000002002F07002914204D2026822F070022D
:1008B0000A43026000F01AF82968094AC1F30321CB
:1008C000515C01F01F01C8400649086006480068F5
:1008D000BDE8F05FFFF760BE0020005218440258E8
:1008E0004C1A00080C00002004000020454970B597
:1008F00045480968434B103B11F0380208D00111FC
:10090000082A03D0102A0BD0182A0BD0084670BD35
:1009100019688906FBD51968C1F3C101C84070BDCB
:100920003A4870BD3749374D18310C1D24350A68D7
:10093000096826682D6802F0030406F00102C1F37D
:100940000511C5F3CC0515FB02F200EE102AB8EE36
:10095000400AE9B32F4ADFED2E0AB7EE001A6CB158
:10096000DFED2D1A012C01D0022C43D002EE101A1B
:100970001068F8EE422A81EEA22A1EE01C68A40646
:1009800011D51B6801EE901A1168C3F3C103F8EE8C
:10099000612AD84001EE900AC1F30800F8EE611A0E
:1009A00081EEA22A0BE001EE901ADFED1C2A00BFB7
:1009B000F8EE611A106882EEA12AC0F3080001EE79
:1009C000900AF8EE611A40EE201A31EE810A00E03A
:1009D00015E022EE000A1068C0F34620401C00EE2D
:1009E000900AF8EE600A80EE201ABCEEC10A10EE02
:1009F000100A70BD01EE901ADFED092AD8E7002039
:100A000070BD0000104402580090D00340787D0172
:100A100000000039304402580024744A0024744C09
:100A200020BCBE4B2DE9F05F04007DD0FF4F207845
:100A3000FE4D1837DFF8F493103DC00748D0D9F8C1
:100A40000000396800F03800102815D0182803D1AC
:100A500001F0030002280FD06068B0F5803F12D08B
:100A600010B1B0F5A02F18D0286820F4803028608D
:100A7000286820F4802009E02868800328D5606871
:100A80000028D2D024E0286840F4803028606068D4
:100A900088B1FFF747FD064609E0286840F480204A
:100AA0002860F0E7FFF73EFD801B64286FD82868B8
:100AB0008003F7D50CE0FFF735FD064605E000BFE3
:100AC000FFF730FD801B6428F0D828688003F7D436
:100AD000207841F20308D54E0C3E800761D5D9F845
:100AE0000000396810F038000ED0182801D18807AE
:100AF0000AD0E06880B3296821F019010143296018
:100B0000FFF710FD82462FE02868400702D5E06815
:100B100000288AD0E168286820F01900084328607E
:100B2000FFF700FD824607E0D1E000BFFFF7FAFCC7
:100B3000A0EB0A000228B9D828684007F6D500BF04
:100B4000FFF7EAFC404513D82069316821F47C3175
:100B500041EA0030306024E011E000BFFFF7E2FC22
:100B6000A0EB0A000228A1D828684007F6D5E7E7DD
:100B7000207C316821F0FE4141EA0060EAE7286804
:100B800020F001002860FFF7CDFC824606E0FFE080
:100B9000FFF7C8FCA0EB0A00022887D828684007A6
:100BA000F6D42078C00657D5D9F80000DFF87CB21B
:100BB000396800F03800ABF1040B082810D0182871
:100BC00003D101F0030001280AD0E0690028286859
:100BD00032D040F080002860FFF7A4FC824623E07A
:100BE0002868C00523D5E069802870D11FE000BFC8
:100BF00094F82000316821F0F84141EA80603060CB
:100C00002AE000BF94F82010DBF8002022F07C528C
:100C100042EA0161CBF800101EE000BFFFF782FC42
:100C2000A0EB0A00022886D82868C005F6D5FFF791
:100C300073FC4045E6D8DBE720F080002860FFF732
:100C400071FC064605E000BFFFF76CFC801B022824
:100C500089D82868C005F7D42078000729D57348BB
:100C60006169643000298046016811D041F00101BA
:100C70000160FFF757FC064605E000BFFFF752FC96
:100C8000801B022889D8D8F800008007F6D510E02C
:100C900021F001010160FFF745FC064605E000BFB9
:100CA000FFF740FC801B022872D8D8F800008007AC
:100CB000F6D42078800623D5A0690028286810D0B3
:100CC00040F480502860FFF72DFC064605E0E6E082
:100CD000FFF728FC801B02285AD828688004F7D523
:100CE0000EE020F480502860FFF71CFC064604E06C
:100CF000FFF718FC801B02284AD828688004F7D424
:100D0000207840074FD5DFF82881D8F8001041F44B
:100D10008071C8F80010FFF705FC064605E000BF2B
:100D2000FFF700FC801B642832D8D8F80000C0050B
:100D3000F6D53E4EA068603601280AD008B10528D5
:100D400013D0306820F001003060306820F00400DB
:100D500002E0306840F001003060A06841F2883A5B
:100D600090B1FFF7DFFB80460AE0306840F00400F6
:100D70003060EEE7FFF7D6FBA0EB0801514507D83E
:100D800030688007F6D50EE0FFF7CCFB804607E021
:100D900084E000BFFFF7C6FBA0EB080151457DD8FA
:100DA00030688007F6D4606AF0B3D9F80010C1F358
:100DB000C201032973D00228286820F080702860BF
:100DC00003D0FFF7AFFB044680E0FFF7ABFB06461E
:100DD00005E000BFFFF7A6FB801B022873D8286838
:100DE0008001F7D4E26A40F2F331386854F8283FC2
:100DF000884340EA021018433860217B4FF4FE0C10
:100E000022894FF0FE47208A4902084B521E267D58
:100E1000A1F5007189B2401EC2F3080220331143CC
:100E2000761E0CEA004005E053E000001044025832
:100E300000480258014307EA0662181F114319606F
:100E40001A1D016821F00101016011684FF6F87662
:100E5000236AB14341EAC30111600168A26921F02C
:100E60000C01114301600168E26921F002011143A4
:100E70000160016841F480310160016841F4003192
:100E80000160016841F480210160016841F00101C5
:100E90000160286840F08070286001E013E01AE0EB
:100EA000FFF740FB044604E0FFF73CFB001B022871
:100EB00009D828688001F7D50BE000BFFFF732FBA7
:100EC000001B022802D90320BDE8F09F286880019A
:100ED000F4D40020F8E70120F6E7401EB0F1807F4F
:100EE00010B501D3012010BD4FF0E02460610F2147
:100EF000601700F069FD0020A0610721216110BD8D
:100F00002DE9F04390F83C20012A42D0012280F8DC
:100F10003C2051F80C4BDFF880804FF0000991E83D
:100F2000680051E9022723F44073B1F80CC03B4339
:100F3000CF6923F480631343026823F400632343DF
:100F400023F4805343EA050323F4005343EA0603E2
:100F500023F4804343EA07030C3923F4702342450A
:100F600043EA0C4302D00D4CA2420CD18D8C23F4E9
:100F70007006D1E9073446EA055121F08071194322
:100F800021F000732343536480F83C900020BDE8B7
:100F9000F0830220FBE70000000001400004014054
:100FA00070B590F83C20012A24D0134C012580F81C
:100FB0003C50022280F83D2002685368A2429668A5
:100FC00002D00E4CA24203D14C6823F47003234399
:100FD0000C6823F0700389681C435460002326F0DA
:100FE000800602683143916080F83D5080F83C30C3
:100FF000184670BD022070BD000001400004014091
:1010000010B5040003D094F83D0010B107E00120B2
:1010100010BD002084F83C00204600F00DF80220AE
:1010200084F83D002068211D00F0A0FA012084F81A
:101030003D00002010BD000008B500680649884248
:1010400008D10648016841F001010160006800F024
:101050000100009008BD000000000140F04402586B
:1010600070B5044690F83C00012814D0394B012596
:1010700084F83C50022084F83D00226890681840B3
:1010800020F47F4090600868702828D010DC10F0B1
:101090000F0F03D04BE04FF0020070BD4FEA20125B
:1010A000072A44D2DFE802F05151515149323A0047
:1010B000B0F1101F49D009DCB0F5805F37D0B0F532
:1010C000005F17D0B0F5801F31D13EE0A0F5801150
:1010D00020393AD0102938D0202928D135E04A6863
:1010E0002068D1E9021300F0B0FA2068816841F06D
:1010F000770109E04A682068D1E9021300F0A5FAF7
:101100002068816841F48041816010E0CA684968C4
:10111000206800F035FC2068502106E0CA68496864
:10112000206800F03EFC2068602100F097FA002063
:1011300084F83D5084F83C0070BDCA684968206856
:1011400000F01EFC20684021EFE7226801461046AF
:10115000EBE7000088FFCEFF10B586B004461421EF
:101160006846FFF7BCF80E492068884216D10D4842
:10117000016841F01001016000680123022200F0C3
:101180001000059000204FF4007100916946CDE9F0
:101190000120CDE903030448FFF7C0F806B010BDF5
:1011A00000000140E04402580010025870B50446A7
:1011B00090F83C000D4601280ED0012684F83C60D2
:1011C000022084F83D000C2A45D007DC5AB1042ADD
:1011D0001BD0082A78D12CE0022070BD102A4ED0F6
:1011E000142A71D15DE0206800F042FA206881691C
:1011F00041F0080181612068816921F00401816169
:1012000020682A698169114311E0206800F084FA9E
:101210002068816941F4006181612068816921F45D
:101220008061816120682969826942EA01218161C6
:101230004AE0206800F0BCFA2068C16941F008016A
:10124000C1612068C16921F00401C16120682A6977
:10125000C169114311E0206800F0F0FA2068C1690B
:1012600041F40061C1612068C16921F48061C161FC
:1012700020682969C26942EA0121C16124E020682D
:1012800000F012FB2068416D41F0080141652068C3
:10129000416D21F00401416520682A69416D1143C7
:1012A00011E0206800F036FB2068416D41F40061D8
:1012B00041652068416D21F480614165206829699C
:1012C000426D42EA01214165002084F83D6084F8C6
:1012D0003C0070BD10B5040003D094F83D0010B17F
:1012E00007E0012010BD002084F83C00204600F0FB
:1012F0000CF8022084F83D002068211D00F036F92A
:10130000012084F83D00002010BD704710B5012277
:101310000446006800F08CF91148216881420BD026
:101320001048814208D01048814205D00F488142C0
:1013300002D00F48814203D1486C40F40040486419
:1013400020680C4A81681140062906D0B1F5803F1B
:1013500003D0016841F001010160002010BD0000D0
:1013600000000140000401400040014000440140F1
:101370000048014007000100FEE7000010B59AB0E8
:1013800000241C21009412A8019402940394049454
:1013900005940694FEF7A3FF2C2107A8FEF79FFFF4
:1013A0002148EF231F4A632180E81C00C0E9031491
:1013B000C0E90514FFF724FE4FF4805000901A484E
:1013C0006946FFF74DFE1848FFF784FF164804A949
:1013D000049405940694FFF7E3FD12AA60202C21E3
:1013E00082E813001048002212A91594169417944D
:1013F0001894FFF7DBFE4FF400500794089409940B
:1014000001030A94CDE90B40CDE90E41064807A936
:101410000D9410941194FFF773FD0348FFF79CFEA1
:101420001AB010BD0000014014000020FEE7704714
:1014300070477047FFF77CB870B59CB04C21684688
:10144000FEF74DFF202113A8FEF749FF0220FFF70A
:1014500003F91D4800241D49026842F4404202601D
:1014600002680A6842F001020A60096801F001019D
:101470001B9101688904FCD50DF1280C022009900C
:101480000521C0228CE80700C3030F9008250D90AA
:1014900001260E90CDE91054CDE900636846129400
:1014A000FFF7C0FA40201A903F210301CDE9165002
:1014B0000322CDE9180313AB13A883E81600042117
:1014C000FFF7F2F81CB070BD184802582C04005801
:1014D000214A30B5214914680020204B44F470049F
:1014E000146010330A681E4D42F001020A60186051
:1014F0000A681A4B2A400A6018331C1D251D174A1A
:10150000186028322060131D28601C1D251D1060E6
:101510002A1D1860131D20601C1D2860251D1060E9
:101520001860206028600A680C4B0E4C22F4802260
:1015300060330A60186020686FF30F00B0F1005F3D
:1015400003D209490120C1F808014FF000600249A7
:101550008039086030BD000088ED00E0004402588A
:101560007FEDF6EA0010005C008000512DE9F047A5
:10157000274B4FF0804A274D02689842264E274F4E
:10158000274C09D0504507D0A84205D0B04203D01F
:10159000B84201D0A04205D1D1F804C022F07002B7
:1015A0004CEA0202DFF87CC0DFF87C809842DFF86A
:1015B0007C900FD050450DD0A8420BD0B04209D03E
:1015C000B84207D0A04205D0604503D0404501D0C5
:1015D000484503D1CD6822F440722A434D6922F078
:1015E00080022A43026098428A68C2620A68826264
:1015F00007D0A04205D0604503D0404501D0484502
:1016000001D10969016301214161BDE8F087000052
:10161000000001400004004000080040000C0040B1
:1016200000040140004001400044014000480140E6
:1016300010B5046A012301F01F018B409C43046232
:101640008A40016A1143016210BD42EA03228368A5
:101650000A4323F47F410A4382607047034B826848
:101660001A400A4342F00701816070478FFFCFFFA5
:101670002DE9F04F026ADFF88880DFF8889022F0C9
:101680000102DFF884A0DFF884B0214F0262DFF8A6
:1016900084C0066A4268836926F002060D68B84273
:1016A0008C6803EA0C0323F0030344EA060445EACA
:1016B000030507D0404505D0484503D0504501D02B
:1016C000584505D1CB6824F00804234323F00404D3
:1016D000B84207D0404505D0484503D0504501D019
:1016E000584505D122F44076D1E9053233431A43F7
:1016F00042608561496841630462BDE8F08F000083
:101700000004014000400140004401400048014005
:10171000000001408FFFFEFFF0B5026A1E4E1F4C15
:1017200022F01002DFF878E00262056A43688269FD
:1017300025F02005D1F808C0A0420F6802EA060291
:1017400022F4407245EA0C1542EA072201D07045A6
:1017500006D1CE6825F0800545EA061525F040053E
:10176000A0420AD0704508D00E4CA04205D00E4CC5
:10177000A04202D00D4CA04207D1D1E9054623F486
:10178000406343EA840343EA860343608261496815
:1017900081630562F0BD0000FF8FFFFE0000014085
:1017A0000004014000400140004401400048014065
:1017B000F0B5026A1C4D1D4E22F48072A8420262EE
:1017C000026A4368C76922F40072D1F808C00C6845
:1017D00027F0730742EA0C2244EA070401D0B04222
:1017E00006D1CF6822F4006242EA072222F4806226
:1017F000A8420AD0B04208D00D4DA84205D00D4DE8
:10180000A84202D00C4DA84207D1D1E9055623F4D5
:10181000405343EA051343EA06134360C461496831
:10182000C1630262F0BD00000000014000040140FD
:1018300000400140004401400048014070B5026A88
:10184000144B22F4805202629842036A4268C469CF
:1018500023F400538E680D6824F4E64443EA06330B
:1018600044EA05240BD00C4DA84208D00B4DA842E9
:1018700005D00B4DA84202D00A4DA84204D14D69B3
:1018800022F4804242EA85124260C46149680164E0
:10189000036270BD000001400004014000400140AF
:1018A0000044014000480140F0B5026A22F4803251
:1018B0000262134F056A4268446D25F400350E89B3
:1018C000B8420B6824F0700445EA064543EA040375
:1018D0000BD00C4CA04208D00B4CA04205D00B4CB6
:1018E000A04202D00A4CA04204D14C6922F48032BA
:1018F00042EA042242604365496881650562F0BDA1
:10190000000001400004014000400140004401404B
:1019100000480140F0B5026A22F480120262134FBF
:10192000046A4268436D24F400140E89B8420D68BD
:1019300023F4E04344EA065443EA05230BD00C4D5C
:10194000A84208D00B4DA84205D00B4DA84202D0AA
:101950000A4DA84204D14D6922F4003242EA8522A0
:10196000426043654968C1650462F0BD0000014002
:101970000004014000400140004401400048014093
:1019800010B5036A046A23F00A0324F00104046218
:1019900084690B4324F0F00141EA02118161036282
:1019A00010BD10B5036A23F0100303628369046A53
:1019B00023F4704324F0A00443EA0232826144EA33
:1019C0000111016210BDFEE7090700284FEA11610D
:1019D00004DB00F1E02080F80014704700F00F00F5
:1019E00000F1E02080F8141D704702E008C8121FC3
:1019F00008C1002AFAD170477047002001E001C1F8
:101A0000121F002AFBD1704708B5FEF799FDFFF7BA
:101A100013FD0C48016841F080010160016801F08C
:101A200080010091016841F010010160006800F040
:101A300010000090FFF7A2FC03480021FFF766FCAE
:101A4000FEE70000E04402581400002000000000FF
:101A50000102030401020304060708097C1A0008B6
:101A60000000002014000000EA190008901A000885
:101A70001400002044040000FA19000801000000CE
:101A800010000000000000000090D0030090D00380
:040000050800029954
:00000001FF
